:020000040800F2
:100000006806002099010008A1010008A30100086A
:10001000A5010008A7010008A901000800000000D0
:10002000000000000000000000000000AB0100081C
:10003000AD01000800000000AF010008B101000898
:10004000B3010008B3010008B3010008B3010008C0
:10005000B3010008B3010008B3010008B3010008B0
:10006000B3010008B3010008B301000855020008FD
:10007000B3010008B3010008B3010008B301000890
:10008000B3010008B3010008B3010008B301000880
:10009000B3010008B3010008B3010008B301000870
:1000A000B3010008B3010008B3010008B301000860
:1000B000B3010008B3010008B3010008B301000850
:1000C000B3010008B3010008B3010008B301000840
:1000D000B3010008B3010008B3010008B301000830
:1000E000B3010008B3010008B301000800F002F8F2
:1000F00000F042F814A696E8000CB244B344DA4586
:1001000001D100F039F8BAE80F000FA696E83000E8
:10011000A5EB040504EB0607AAEB0704A7F101070A
:100120004FEA15154FEA3414A4F10104AC4201D38F
:1001300000F022F813F0010F18BFFB1A43F001037F
:1001400000F001F8DBE71847C4050000D405000003
:10015000704700000023002400250026103A28BF25
:1001600078C1FBD8520728BF30C148BF0B60704729
:100170001FB51FBD10B510BD00F031F81146FFF7D7
:10018000F7FF00F0D3F900F04FF803B4FFF7F2FFE8
:1001900003BC00F057F800000948804709480047B1
:1001A000FEE7FEE7FEE7FEE7FEE7FEE7FEE7FEE727
:1001B000FEE7FEE704480549054A064B7047000084
:1001C000C9030008ED000008680000206806002050
:1001D000680200206802002070477047704775462B
:1001E00000F02CF8AE4605006946534620F00700A3
:1001F000854618B020B5FFF7DDFFBDE820404FF081
:1002000000064FF000074FF000084FF0000BAC461F
:10021000ACE8C009ACE8C009ACE8C009ACE8C0096A
:1002200021F007018D46704710B50446AFF30080FA
:100230002046BDE81040FFF7A8BF00000048704707
:100240000000002001491820ABBEFEE72600020096
:100250007047000080B50020C4F2020000688007EB
:10026000002819D5FFE70421C4F20201022008602A
:1002700040F20570C0F6000000F02EF940F2600078
:10028000C2F20000008800F0EBF840F20270C0F605
:10029000000000F021F9FFE780BD000080B500F00C
:1002A00001F880BD84B000200390029041F200016B
:1002B000C4F20201086840F480300860FFE741F2B0
:1002C0000000C4F20200006800F4003002900398BD
:1002D00001300390FFE702990020019039B9FFE750
:1002E0000398B0F5A06018BF01200190FFE70198C6
:1002F000C0070028E3D1FFE741F20000C4F202008A
:1003000000688003002803D5FFE70120029002E087
:1003100000200290FFE70298012851D1FFE742F246
:100320000001C4F20201086840F01000086008688B
:1003300020F007000860086840F00200086041F201
:100340000401C4F2020100910868086008680860AE
:10035000086840F480600860086820F47C10086039
:10036000086840F4E810086041F20001C4F202019C
:10037000086840F080700860FFE741F20000C4F2B6
:10038000020000688001002801D4FFE7F5E741F290
:100390000401C4F20201086820F003000860086844
:1003A00040F002000860FFE741F20400C4F20200DE
:1003B000006800F00C00082801D0FFE7F4E700E037
:1003C000FFE704B07047000080B541F20002C4F2BC
:1003D0000202106840F00100106041F20401C4F212
:1003E000020108680023CFF6FF0318400860106878
:1003F0004FF6FF73CFF6F66318401060106820F4D4
:1004000080201060086820F4FE00086041F20801B6
:10041000C4F202014FF41F000860FFF73FFF4EF6E1
:100420000851CEF200014FF00060086080BD00006E
:1004300081B08DF80300FFE743F60000C4F201002D
:1004400000880006002801D4FFE7F5E79DF80300C7
:1004500043F60401C4F20101088001B070470000B6
:1004600080B584B0ADF80E0000200190BDF80E00FC
:1004700020B9FFE73020FFF7DBFF2AE0FFE7BDF8F8
:100480000E00012819DBFFE7BDF80E0049F69A11AE
:10049000C1F69911A0FB013202EB8202A0EB4200EF
:1004A0003030019B5A1C019202AAD054BDF80E00B4
:1004B000A0FB0110ADF80E00E1E7FFE70198411E37
:1004C000019130B1FFE7019902A8405CFFF7B0FF4E
:1004D000F4E704B080BD000080B582B00190FFE772
:1004E0000198007838B1FFE70198411C019100782C
:1004F000FFF79EFFF4E702B080BD000081B08DF8E9
:1005000003009DF9030000280ED4FFE79DF90310B6
:1005100001F01F02012090404A094EF20011CEF274
:10052000000141F82200FFE701B0704780B584B0B8
:100530000020039041F21802C4F2020202921168F4
:1005400041F00401116040F60003C4F20103196890
:1005500021F00F01196040F60403C4F20103196889
:1005600021F0F0011960196841F020011960196843
:1005700041F080011960116841F48041116043F637
:100580000802C4F2010241F64C51118043F60C02FC
:10059000C4F2010242F20801118041F21402C4F2D5
:1005A0000202116841F0010111601022C4F202023E
:1005B00042F24C41C4F20101116040F26001C2F20A
:1005C00000011422C4F2020211600C22C4F20202E1
:1005D000012111600821C4F202010191086008683C
:1005E00040F480700860086840F480600860086823
:1005F00040F0020008600B20FFF780FF019A02998B
:10060000106840F001001060086840F40070086055
:1006100042F20841C4F20101086840F00800086095
:10062000FFE742F20840C4F201000068000700281A
:1006300001D5FFE7F5E742F20841C4F2010108687D
:1006400040F004000860FFE742F20840C4F20100F5
:1006500000684007002801D5FFE7F5E742F20841AE
:10066000C4F201010091086840F480100860086835
:1006700040F440200860086840F48070086042F24E
:100680002C42C4F201020020106042F23442C4F253
:1006900001021060086840F00100086041F21C018E
:1006A000C4F20201086840F0010008602821C4F289
:1006B000000141F61F4008802C21C4F20001632094
:1006C00008800421C4F20001088820F0700008802E
:1006D000088840F0200008804FF08041088840F0F2
:1006E0000100088040F2F460C0F60000FFF7F4FE5D
:1006F000FFE7FEE753797374656D2053746172747C
:1007000065640D0A00414443203D20001C07000899
:0C071000000000206806000054010008F2
:040000050800019955
:00000001FF
